:020000040800F2
:1000000000000220B9320008093300080933000853
:100010000933000809330008093300080000000014
:10002000000000000000000000000000093300088C
:1000300009330008000000000933000809330008F4
:1000400009330008093300080933000809330008A0
:1000500000000000093300080933000809330008D4
:100060000933000809330008093300080933000880
:100070000933000809330008093300080933000870
:100080000933000809330008093300080933000860
:100090000933000809330008093300080933000850
:1000A0000933000809330008093300080933000840
:1000B0000933000809330008E5190008093300086E
:1000C0000933000809330008093300080933000820
:1000D0000933000809330008093300080933000810
:1000E0000933000809330008093300080933000800
:1000F00009330008093300080933000809330008F0
:1001000009330008093300080933000809330008DF
:1001100009330008093300080933000809330008CF
:1001200009330008093300080933000809330008BF
:1001300009330008093300080933000809330008AF
:10014000093300080933000809330008093300089F
:10015000093300080933000809330008093300088F
:10016000093300080933000809330008093300087F
:10017000093300080933000809330008093300086F
:080180000933000809330008EF
:1001900010B5054C237833B9044B13B10448AFF3C1
:1001A00000800123237010BD88040020000000009F
:1001B0002043000808B5034B1BB103490348AFF3C4
:1001C000008008BD000000008C04002020430008CF
:1001D00001F0FF01102A2BDB10F0070F08D010F8F8
:1001E000013B013A8B422DD010F0070F42B3F6D1FC
:1001F000F0B441EA012141EA014122F007047FF015
:1002000000070023F0E80256083C85EA010586EA6B
:10021000010685FA47F5A3FA87F586FA47F6A5FAA7
:1002200087F68EB9EED1F0BC01F0FF0102F00702B3
:1002300032B110F8013B013A83EA010313B1F8D15E
:100240000020704701387047002D06BF354603383F
:10025000073815F0010F07D1013015F4807F02BF78
:10026000013015F4C03F0130F0BC0138704700BFC9
:1002700070B54FF0FF0C4CF4E06C1CEA11541DBF3C
:100280001CEA135594EA0C0F95EA0C0F00F0DEF807
:100290002C4481EA030621EA4C5123EA4C5350EAEC
:1002A000013518BF52EA033541F4801143F480133D
:1002B00038D0A0FB02CE4FF00005E1FB02E506F0CE
:1002C0000042E0FB03E54FF00006E1FB03569CF023
:1002D000000F18BF4EF0010EA4F1FF04B6F5007F29
:1002E00064F5407404D25FEA4E0E6D4146EB06069B
:1002F00042EAC62141EA55514FEAC52040EA5E5024
:100300004FEACE2EB4F1FD0C88BFBCF5E06F1ED8CD
:10031000BEF1004F08BF5FEA500E50F1000041EB04
:10032000045170BD06F0004646EA010140EA0200B1
:1003300081EA0301B4EB5C04C2BFD4EB0C0541EAD3
:10034000045170BD41F480114FF0000E013C00F3E8
:10035000AB8014F1360FDEBF002001F0004170BD0C
:10036000C4F10004203C35DA0C341BDC04F1140425
:10037000C4F1200500FA05F320FA04F001FA05F2B1
:1003800040EA020001F0004221F0004110EBD3707E
:1003900021FA04F642EB06015EEA430E08BF20EAAA
:1003A000D37070BDC4F10C04C4F1200500FA04F34D
:1003B00020FA05F001FA04F240EA020001F00041DF
:1003C00010EBD37041F100015EEA430E08BF20EA52
:1003D000D37070BDC4F1200500FA05F24EEA020E9A
:1003E00020FA04F301FA05F243EA020321FA04F0C9
:1003F00001F0004121FA04F220EA020000EBD37080
:100400005EEA430E08BF20EAD37070BD94F0000F7F
:100410000FD101F00046400041EB010111F4801FB3
:1004200008BF013CF7D041EA060195F0000F18BF64
:10043000704703F00046520043EB030313F4801FA0
:1004400008BF013DF7D043EA0603704794EA0C0F5A
:100450000CEA135518BF95EA0C0F0CD050EA410670
:1004600018BF52EA4306D1D181EA030101F00041ED
:100470004FF0000070BD50EA410606BF1046194615
:1004800052EA430619D094EA0C0F02D150EA013621
:1004900013D195EA0C0F05D152EA03361CBF104662
:1004A00019460AD181EA030101F0004141F0FE4101
:1004B00041F470014FF0000070BD41F0FE4141F485
:1004C000780170BD81F0004102E000BF83F000437D
:1004D00030B54FEA41044FEA430594EA050F08BFDF
:1004E00090EA020F1FBF54EA000C55EA020C7FEAA3
:1004F000645C7FEA655C00F0E2804FEA5454D4EB20
:100500005555B8BF6D420CDD2C4480EA020281EAE9
:10051000030382EA000083EA010180EA020281EA21
:100520000303362D88BF30BD11F0004F4FEA013173
:100530004FF4801C4CEA113102D0404261EB410182
:1005400013F0004F4FEA03334CEA133302D0524208
:1005500063EB430394EA050F00F0A780A4F10104C4
:10056000D5F1200E0DDB02FA0EFC22FA05F28018FE
:1005700041F1000103FA0EF2801843FA05F35941E4
:100580000EE0A5F120050EF1200E012A03FA0EFC63
:1005900028BF4CF0020C43FA05F3C01851EBE3718D
:1005A00001F0004507D54FF0000EDCF1000C7EEBAA
:1005B00000006EEB0101B1F5801F1BD3B1F5001FE8
:1005C0000CD349085FEA30004FEA3C0C04F1010407
:1005D0004FEA445212F5800F80F09A80BCF1004F30
:1005E00008BF5FEA500C50F1000041EB045141EAB2
:1005F000050130BD5FEA4C0C404141EB0101013C7B
:1006000028BFB1F5801FE9D291F0000F04BF014669
:100610000020B1FA81F308BF2033A3F10B03B3F13B
:1006200020020CDA0C3208DD02F1140CC2F10C02CB
:1006300001FA0CF021FA02F10CE002F11402D8BF29
:10064000C2F1200C01FA02F120FA0CFCDCBF41EAF5
:100650000C019040E41AA2BF01EB0451294330BDC4
:100660006FEA04041F3C1CDA0C340EDC04F11404A1
:10067000C4F1200220FA04F001FA02F340EA030078
:1006800021FA04F345EA030130BDC4F10C04C4F1BE
:10069000200220FA02F001FA04F340EA030029469E
:1006A00030BD21FA04F0294630BD94F0000F83F4E8
:1006B000801306BF81F480110134013D4EE77FEACB
:1006C000645C18BF7FEA655C29D094EA050F08BF17
:1006D00090EA020F05D054EA000C04BF19461046F8
:1006E00030BD91EA030F1EBF0021002030BD5FEA3C
:1006F000545C05D14000494128BF41F0004130BD64
:1007000014F580043CBF01F5801130BD01F00045B7
:1007100045F0FE4141F470014FF0000030BD7FEA2A
:10072000645C1ABF194610467FEA655C1CBF0B4625
:10073000024650EA013406BF52EA033591EA030F3C
:1007400041F4002130BD00BF90F0000F04BF002134
:10075000704730B54FF4806404F132044FF0000567
:100760004FF0000150E700BF90F0000F04BF0021E0
:10077000704730B54FF4806404F1320410F0004546
:1007800048BF40424FF000013EE700BF42004FEA41
:10079000E2014FEA31014FEA02701FBF12F07F43BE
:1007A00093F07F4F81F06051704732F07F4208BF75
:1007B000704793F07F4F04BF41F40021704730B57C
:1007C0004FF4607401F0004521F000411CE700BFC8
:1007D00050EA010208BF704730B54FF000050AE04B
:1007E00050EA010208BF704730B511F0004502D54C
:1007F000404261EB41014FF4806404F132045FEA4E
:10080000915C3FF4D8AE4FF003025FEADC0C18BFF6
:1008100003325FEADC0C18BF033202EBDC02C2F1E8
:10082000200300FA03FC20FA02F001FA03FE40EA7A
:100830000E0021FA02F11444BDE600BF4A0011D2B5
:1008400012F5001211D20DD56FF47873B3EB62522A
:100850000ED44FEAC12343F0004343EA505323FA36
:1008600002F070474FF00000704750EA013002D1AB
:100870004FF0FF3070474FF00000704780B582B0F6
:1008800000AF0346FB71064BDB689847054B9B683E
:10089000FA791046984700BF0837BD4680BD00BFB3
:1008A000504500080446000880B582B000AF0346FA
:1008B000FB71064B1B699847054B9B68FA791046FC
:1008C000984700BF0837BD4680BD00BF50450008AF
:1008D0000446000880B500AF8C4B5B689847282021
:1008E000FFF7CCFFEF20FFF7C9FF0320FFF7DCFF86
:1008F0008020FFF7D9FF0220FFF7D6FFCF20FFF7B8
:10090000BDFF0020FFF7D0FFC120FFF7CDFF302053
:10091000FFF7CAFFED20FFF7B1FF6420FFF7C4FF28
:100920000320FFF7C1FF1220FFF7BEFF8120FFF772
:10093000BBFFE820FFF7A2FF8520FFF7B5FF0020EF
:10094000FFF7B2FF7820FFF7AFFFCB20FFF796FF4E
:100950003920FFF7A9FF2C20FFF7A6FF0020FFF7A3
:10096000A3FF3420FFF7A0FF0220FFF79DFFF72031
:10097000FFF784FF2020FFF797FFEA20FFF77EFFB5
:100980000020FFF791FF0020FFF78EFFC020FFF748
:1009900075FF2320FFF788FFC120FFF76FFF1020AE
:1009A000FFF782FFC520FFF769FF3E20FFF77CFFBE
:1009B0002820FFF779FFC720FFF760FF8620FFF7A9
:1009C00073FF3620FFF75AFF4820FFF76DFF3720EF
:1009D000FFF754FF0020FFF767FF3A20FFF74EFFB5
:1009E0005520FFF761FFB120FFF748FF0020FFF718
:1009F0005BFF1820FFF758FFB620FFF73FFF0820E6
:100A0000FFF752FF8220FFF74FFF2720FFF74CFF31
:100A1000F220FFF733FF0020FFF746FF2620FFF705
:100A20002DFF0120FFF740FFE020FFF727FF0F20F9
:100A3000FFF73AFF3120FFF737FF2B20FFF734FF96
:100A40000C20FFF731FF0E20FFF72EFF0820FFF7E5
:100A50002BFF4E20FFF728FFF120FFF725FF37205F
:100A6000FFF722FF0720FFF71FFF1020FFF71CFFF3
:100A70000320FFF719FF0E20FFF716FF0920FFF7ED
:100A800013FF0020FFF710FFE120FFF7F7FE002023
:100A9000FFF70AFF0E20FFF707FF1420FFF704FF00
:100AA0000320FFF701FF1120FFF7FEFE0720FFF7ED
:100AB000FBFE3120FFF7F8FEC120FFF7F5FE4820CE
:100AC000FFF7F2FE0820FFF7EFFE0F20FFF7ECFE26
:100AD0000C20FFF7E9FE3120FFF7E6FE3620FFF796
:100AE000E3FE0F20FFF7E0FE1120FFF7C7FE0848E6
:100AF00000F010F82920FFF7C1FE054800F00AF8C1
:100B0000024B9B68984700BF80BD00BF504500085E
:100B100000127A0080B485B000AF78600023FB60DB
:100B200003E000BFFB680133FB60FA687B689A4210
:100B3000F7D300BF00BF1437BD465DF8047B704794
:100B400090B583B000AF0446084611461A462346C6
:100B5000FB800346BB800B467B8013463B80204BCB
:100B60005B6898472A20FFF789FEFB881B0A9BB227
:100B7000DBB21846FFF798FEFB88DBB21846FFF79A
:100B800093FE7B881B0A9BB2DBB21846FFF78CFEF4
:100B90007B88DBB21846FFF787FE2B20FFF76EFE3F
:100BA000BB881B0A9BB2DBB21846FFF77DFEBB88F1
:100BB000DBB21846FFF778FE3B881B0A9BB2DBB21C
:100BC0001846FFF771FE3B88DBB21846FFF76CFE54
:100BD000034B9B68984700BF0C37BD4690BD00BFD4
:100BE0005045000880B500AF074B5B699847074B3D
:100BF0009B680C209847044B9B699847034B9B6864
:100C00007A20984700BF80BD504500081046000874
:100C100080B586B000AFBA601A460346FB810B462A
:100C2000BB811346FB80FB8904339AB2BB89063330
:100C30009BB2B989F889FFF783FF234B5B6898471C
:100C40002C20FFF71BFE00237B6132E000233B6179
:100C500029E07B69BA6813441B781A463B69C3F1E3
:100C6000040342FA03F303F00103002B0CD0FB88CA
:100C70001B0A9BB2DBB21846FFF716FEFB88DBB2FD
:100C80001846FFF711FE0BE03B8C1B0A9BB2DBB250
:100C90001846FFF709FE3B8CDBB21846FFF704FE4F
:100CA0003B6901333B613B69042BD2DD7B69013336
:100CB0007B617B69062BC9DD034B9B68984700BFAE
:100CC0001837BD4680BD00BF5045000880B588B0CC
:100CD00002AFBA601A460346FB810B46BB8113463E
:100CE000FB80FB89FB826BE03A4B3B61BB681B7866
:100CF000402B0ED9BB681B785A2B0AD8BB681B78CF
:100D0000A3F141021346DB009B1A334A13443B61B3
:100D100047E0BB681B782F2B0ED9BB681B78392B9B
:100D20000AD8BB681B78A3F130021346DB009B1A7C
:100D30002A4A13443B6134E0BB681B78202B02D164
:100D4000244B3B612DE0BB681B782A2B02D1244B3E
:100D50003B6126E0BB681B78602B0ED9BB681B7813
:100D60007A2B0AD8BB681B78A3F161021346DB001B
:100D70009B1A1C4A13443B6113E0BB681B782E2B63
:100D800002D1194B3B610CE0BB681B782D2B02D1C3
:100D9000164B3B6105E0BB681B783A2B01D1144B25
:100DA0003B61FA88B989F88A3B8C009313463A690B
:100DB000FFF72EFFFB8A0633FB82BB680133BB6063
:100DC000BB681B78002B8FD100BF00BF1837BD4612
:100DD00080BD00BF3045000870430008E8440008AB
:100DE0003845000828440008E04400084045000851
:100DF0004845000890B585B000AF04460846114646
:100E00001A462346FB800346BB800B467B80134675
:100E10003B807B88002B34D03B88002B31D0FA8874
:100E20007B8813449BB2013B9CB2BA883B88134435
:100E30009BB2013B9BB2B988F8882246FFF780FE3F
:100E4000124B5B6898472C20FFF718FD7B883A8887
:100E500002FB03F3FB600BE03B8C1B0A9BB2DBB293
:100E60001846FFF721FD3B8CDBB21846FFF71CFD4F
:100E7000FB685A1EFA60002BEED1044B9B68984722
:100E800000E000BF1437BD4690BD00BF50450008CC
:100E900080B487B000AF87ED010A3860D7ED017AE2
:100EA000FCEEE77A17EE903AFB82FB8A324AA2FB0D
:100EB00003239B09BB82FA8ABB8A304901FB03F3F7
:100EC00013442F4A82FB03125211DB17D31A7B8281
:100ED000FA8ABB8A294901FB03F31A447B8A6FF023
:100EE000630101FB03F31344264A82FB03129210B1
:100EF000DB17D31A3B82BB8A1A465201D21A9200E0
:100F00001344DB009BB2FA8AD31A9AB27B8A194641
:100F100089000B4419468800194603460B449B0080
:100F20009BB2D31A9AB23B8A194689000B445B00E4
:100F30009BB2D31AFB81BB8ADBB23033DAB23B6897
:100F40001A707B8ADAB23B6801333032D2B21A703F
:100F50003B8ADAB23B6802333032D2B21A70FB8974
:100F6000DAB23B6803333032D2B21A7000BF1C379A
:100F7000BD465DF8047B7047D34D621018FCFFFF3F
:100F80001F85EB516766666680B586B002AF0023A9
:100F9000FB734FF00003BB604FF6FF730093C82351
:100FA000D22264211E20FFF725FF4FF6FF73009326
:100FB0000323D22261211E20FFF71CFF444BBB609C
:100FC0000023FB7321E03B1D184697ED020AFFF753
:100FD0005FFFFB7B9BB21A46920013449B009BB2BF
:100FE0005D3399B23A1D002300934FF6FF73002042
:100FF000FFF76CFED7ED027A9FED367A77EEC77A6F
:10100000C7ED027AFB7B0133FB73FB7B092BDAD93B
:10101000FB7B9BB21A46920013449B009BB25D334C
:1010200099B2002300934FF6FF732B4A0020FFF77D
:101030004DFE002300934FF47843284A40F23111CB
:101040007D20FFF743FE4FF47843009301235A229B
:1010500040F233111E20FFF7CDFE4FF4784300938A
:101060000123582240F233119820FFF7C3FE0023DA
:1010700000934FF6FF731A4A1E210020FFF726FE49
:10108000002300934FF6FF73164A28210020FFF734
:101090001DFE002300934FF6FF73134A32210020F8
:1010A000FFF714FE002300934FF6FF730F4A3C2115
:1010B0000020FFF70BFE002300934FF6FF730C4A4E
:1010C00050210520FFF702FE00BF1037BD4680BD4E
:1010D00000808E440000E44238430008404300088A
:1010E0004843000850430008584300086043000884
:1010F0006C43000880B483B000AF0023FB71002371
:10110000FB710EE0FB790C4A40F2291122F8131012
:10111000FB790A4A40F2291122F81310FB790133B6
:10112000FB71FB79682BEDD900BF00BF0C37BD46C2
:101130005DF8047B704700BFA40400207805002000
:1011400080B400AF194B1B6B184A43F002031363C2
:10115000174B1B68164A23F47C331360144B1B682F
:10116000134A43F4A8331360114B5B68104A23F40D
:10117000E07353600E4B9B680D4A43F47C339360DD
:101180000B4BDB680A4A23F47C33D360084B4022C4
:101190009A61074B80229A61054B4FF480729A61E5
:1011A00000BFBD465DF8047B704700BF00380240B9
:1011B0000004024080B400AF184B1B6B174A43F089
:1011C00002031363154B1B6B154B1B68144A23F06A
:1011D0007C531360124B1B68114A43F0A8531360F1
:1011E0000F4B5B680E4A23F4E04353600C4B9B6843
:1011F0000B4A23F07C539360094B9B68084A43F0E9
:10120000A8539360064BDB68054A23F07C53D360F8
:1012100000BFBD465DF8047B704700BF0038024048
:101220000004024080B400AF174B1B6B164A43F01A
:1012300001031363154B1B68144A23F0F00313607A
:10124000124B1B68114A43F0500313600F4B5B684D
:101250000E4A23F00C0353600C4B9B680B4A23F09F
:10126000F0039360094B9B68084A43F0A003936026
:10127000064BDB68054A23F0F003D36000BFBD4690
:101280005DF8047B704700BF003802400000024058
:1012900080B400AF114B1B6B104A43F0040313637F
:1012A0000E4B1B6B0E4B1B680D4A23F47F7323F010
:1012B000030313600A4B5B68094A23F01F03536062
:1012C000074BDB68064A23F47F7323F00303D360E4
:1012D00000BFBD465DF8047B704700BF0038024088
:1012E0000008024080B400AF044B4FF480029A61C2
:1012F00000BFBD465DF8047B704700BF000402409C
:1013000080B400AF034B40229A6100BFBD465DF838
:10131000047B70470004024080B400AF044B4FF4DC
:1013200000029A6100BFBD465DF8047B704700BFB4
:101330000004024080B400AF034B80229A6100BFDA
:10134000BD465DF8047B70470004024080B400AFE6
:10135000044B4FF080729A6100BFBD465DF8047B7C
:10136000704700BF0004024080B400AF044B4FF44C
:1013700080729A6100BFBD465DF8047B704700BF74
:101380000004024080B400AF034B044A9A6100BFDE
:10139000BD465DF8047B7047000002400400080071
:1013A00080B400AF034B044A9A6100BFBD465DF8AC
:1013B000047B7047000002400800040080B400AFC6
:1013C000044B4FF480529A6100BFBD465DF8047B28
:1013D000704700BF0004024080B400AF044B4FF0E0
:1013E00080529A6100BFBD465DF8047B704700BF24
:1013F0000004024080B400AF044B4FF400529A61E5
:1014000000BFBD465DF8047B704700BF000402408A
:1014100080B400AF044B4FF000529A6100BFBD464C
:101420005DF8047B704700BF0004024080B400AF49
:10143000044B4FF480429A6100BFBD465DF8047BC7
:10144000704700BF0004024080B400AF044B4FF06F
:1014500080429A6100BFBD465DF8047B704700BFC3
:101460000004024080B400AF054B5B69044A83F47A
:101470008053536100BFBD465DF8047B704700BFD9
:101480000004024080B400AF054B5B69044A83F45A
:101490000053536100BFBD465DF8047B704700BF39
:1014A0000004024080B400AF054B5B69044A83F43A
:1014B0008043536100BFBD465DF8047B704700BFA9
:1014C0000004024080B400AF064B1B6903F0010327
:1014D000002B0CBF01230023DBB21846BD465DF88C
:1014E000047B70470008024080B400AF064B1B69C4
:1014F00003F00203002B0CBF01230023DBB21846CC
:10150000BD465DF8047B70470008024080B400AF20
:10151000064B1B6903F00403002B0CBF01230023BF
:10152000DBB21846BD465DF8047B704700080240F8
:1015300080B400AF064B1B6903F00803002B0CBFFF
:1015400001230023DBB21846BD465DF8047B7047DB
:101550000008024080B400AF064B1B6903F0100383
:10156000002B0CBF01230023DBB21846BD465DF8FB
:10157000047B70470008024080B59EB000AF00F0C9
:101580001BFA00F001FA002387F87730002387F870
:101590007630002387F875309A4B1B68984700F027
:1015A000CDF9994B1B689847984B1B6844F620600F
:1015B0009847974B1B689847964BDB699847954B24
:1015C0009B6A9847934B1B6D98479FED930A9348EE
:1015D00000F06EFC924B93ED137A914BD3ED137A9E
:1015E00067EE277A8E4BC3ED147A8D4B93ED147A08
:1015F000F7EE006AC6EE877A894BC3ED617A01F097
:1016000033FD97F87530032BFBD801A252F823F075
:1016100021160008AD16000803170008BB170008C4
:1016200000233B6713E03B6F01333B673A6F7D4B11
:10163000A3FB02139B0C7C4901FB03F3D31A002B81
:1016400005D1744B5B6C9847724B9B6C9847714B00
:101650005B6D184600F056F90346002BE3D000BF3F
:101660006C4B5B6D98470346002BF9D1386F01F046
:101670004DFE012387F8773001F076FE02466B4B72
:1016800083FB0231D317C91A0B465B000B44D11AF6
:10169000CBB20133DBB23B715E4B1B6B98475D4BAA
:1016A0009B6B9847012387F87530A9E000F0E0F8BC
:1016B000544B9B684FF4FA7098470023FB6614E084
:1016C0003A1DFB6E13441B78184600F0B1F84D4BE1
:1016D0009B684FF4C870984700F0CAF8494B9B6864
:1016E000C8209847FB6E0133FB6697F87730FA6E97
:1016F0009A42E5DB002387F87630022387F87530BD
:101700007EE000F0C5F8034687F86B3097F86B3041
:10171000002B46D097F8763078333B4413F8743C6E
:1017200097F86B209A4239D197F86B30184600F041
:101730007FF8344B9B68C820984700F099F897F8D9
:101740007630013387F8763097F8762097F877303F
:101750009A4226D197F87730013387F8773001F035
:1017600003FE0246314B83FB0231D317C91A0B46E5
:101770005B000B44D11ACAB297F87730013B0132B3
:10178000D2B278333B4403F8742C1E4B9B684FF461
:10179000FA709847012387F8753002E0032387F831
:1017A00075301C4B5B6E184600F0ACF80346002BFE
:1017B00024D0002387F8753020E0164B5B6C9847E7
:1017C000104B9B68C8209847124B5B6E184600F080
:1017D00099F80346002B0CD000BF0E4B5B6E984768
:1017E0000346002BF9D1002387F87530094B1B6B9A
:1017F0009847044B9B68C820984701E000BF00E76A
:10180000FFE600BF10460008F4450008E045000868
:101810001C460008504500089A992141EC00002020
:101820003400002083DE1B4340420F0056555555BF
:1018300080B582B000AF0346FB7100F019F8FB7968
:10184000012B02D1094BDB6A9847FB79022B02D1AD
:10185000064B5B6B9847FB79032B02D1034BDB6B89
:10186000984700BF0837BD4680BD00BF50450008FF
:1018700080B500AF054B1B6B9847044B9B6B98479B
:10188000024B1B6C984700BF80BD00BF504500084D
:1018900080B500AF1A4B9B6D184600F033F8034635
:1018A000002B08D000BF164B9B6D98470346002BBA
:1018B000F9D1012322E0124BDB6D184600F022F82B
:1018C0000346002B08D000BF0D4BDB6D9847034645
:1018D000002BF9D1022311E0094B1B6E184600F0D2
:1018E00011F80346002B08D000BF054B1B6E98472C
:1018F0000346002BF9D1032300E00023184680BDE6
:101900005045000880B582B000AF78607B6898478A
:101910000346012B0AD1084B9B68142098477B682B
:1019200098470346012B01D1012300E0002318460C
:101930000837BD4680BD00BF1046000880B500AF27
:101940000E4B1B6898470E4B9B684FF4E17142F2B7
:10195000107098470B4B1B6898470A4B5B68984779
:10196000064B9B689847FFF73DF9FEF7B3FFFFF77B
:101970000BFBFFF7BFFB00BF80BD00BF5045000859
:10198000E04500080446000880B400AF094BD3F8D6
:101990008830084A43F47003C2F88830BFF34F8F91
:1019A00000BFBFF36F8F00BF00BFBD465DF8047B73
:1019B000704700BF00ED00E080B400AF084B4FF06F
:1019C000FF329A62064B4FF0FF32DA62044B4FF05F
:1019D000FF321A6300BFBD465DF8047B704700BF4D
:1019E00000ED00E080B582B000AF0023FB718E4BAC
:1019F0001B6903F00103002B00F0DC818A4B1B699B
:101A0000894A23F001031361884B5B6898470346BA
:101A10001A46874B5A60864B5B6807EE903AB8EEE1
:101A2000677ADFED846AC7EE267A9FED837A67EEE8
:101A3000877A9FED827A27EE877ADFED816AC7EE9B
:101A4000267A7B4BC3ED007A794B00225A60774BA4
:101A50009B689847764BD3ED007AB0EE670A0A216F
:101A6000784800F0F6FC784B1B68132B0ED8764BA9
:101A70001B68764A16339B0013440433744A1A6079
:101A8000714B1B680133704A136083E10A216D4872
:101A900000F006FDF0EE407A654BC3ED007A644B32
:101AA0001B686C4A1360624B1B899BB207EE903A2D
:101AB000B8EEE77ADFED686AC7EE267A634BC3EDCE
:101AC0002D7A624BD3ED2D7A604B93ED057A5F4B07
:101AD000D3ED066A5D4B93ED076A5C4BD3ED085A74
:101AE000B0EE652AF0EE461AB0EE661AF0EE470A3E
:101AF000B0EE670A594800F0B4F9544B5B69534A99
:101B00009361524BD3F8B430504A53614F4BDB6969
:101B10004E4A1362464B93ED007ADFED4F6AC7EEF3
:101B2000267A4A4BC3ED077A05224C494C4800F00F
:101B300065F9F0EE407A454BC3ED157A434B5B6D8A
:101B4000484A13603A4B93ED007A404BD3ED157A37
:101B500077EE677A3D4BC3ED167A3C4BD3ED167AA0
:101B6000B0EE670A1421404800F073FC364B1B6846
:101B7000142B40F00F8114213B4800F091FCF0EE53
:101B8000407A324BC3ED2B7A304BD3ED2B7AF0EE0B
:101B9000E77AB1EE047AF4EEC77AF1EE10FA40F388
:101BA000C080324B1B78002B40F0BB80304A2B4961
:101BB000304800F0B7F905222D49284800F01EF9F9
:101BC000F0EE407A214BC3ED677A204B93ED137A08
:101BD0001E4BD3ED137A27EE277A1C4BD3ED677A91
:101BE00077EE277A194BC3ED607A00233B6014E04F
:101BF000164A3B680E339B001344D3ED006A134B27
:101C000093ED607AC6EE877A104A3B689B001344D6
:101C1000C3ED007A3B6801333B603B68042BE7DD92
:101C20000023FB7146E000BF00080040F4450008B7
:101C300000000020000030420000C8420000704256
:101C4000CDCC8C400C000020580600203400002031
:101C50000000C8424C06002000007A4458000020D2
:101C6000BC010020500600209000002056060020F5
:101C70006C000020EC000020FB79504A62339B008E
:101C8000134493ED007AFB794C4A9B001344D3ED47
:101C9000006A4A4BD3ED167A66EEA77AFB7977EEA7
:101CA000277A464A62339B001344C3ED007AFB79DE
:101CB0000133FB71FB79042BDED9B7EE000A4048F3
:101CC00000F0F6F83F4A40493C4800F074F93F4ABA
:101CD0003C493B4800F0A9F9384BD3ED617A3C49C7
:101CE000B0EE670A394800F0E8F93A4A3A4938480C
:101CF00000F021FA3949354800F08BFA384A374963
:101D0000344800F018FA3449354800F0B8FA32483F
:101D100000F0EBFADFED330A9FED330A2E4800F0B6
:101D20003EFB264BD3ED2B7AF0EEE77AB1EE047A48
:101D3000F4EEC77AF1EE10FA29D52C4B1B78002B64
:101D400021D19FED2B0A244800F0B2F81B4B4FF035
:101D50000002C3F880210023FB7111E0FB79174AD0
:101D60009B0013444FF000021A60FB79134A0E33B4
:101D70009B0013444FF000021A60FB790133FB71A2
:101D8000FB79042BEAD9194B01221A7002E0174B98
:101D900000221A70174B1B780133DAB2154B1A70F8
:101DA000144B1B78092B05D9134B01221A70114BC8
:101DB00000221A7000BF0837BD4680BD34000020E5
:101DC00050010020D40100205800002038020020DB
:101DD0009C02002000030020EC000020640300208F
:101DE000C803002000007A446F12833A5606002090
:101DF0009A992141550600205406002080B487B0EE
:101E000000AFF860B9607A600023FB754FF0000303
:101E10003B610023FB7516E0FB7D9B00FA681344D1
:101E200093ED007AFB7D9B00BA681344D3ED007AF2
:101E300067EE277A97ED047A77EE277AC7ED047A72
:101E4000FB7D0133FB75FB7D7A689A42E4DC3B69DC
:101E500007EE903AB0EE670A1C37BD465DF8047B8A
:101E6000704780B487B000AF786187ED040AC7ED92
:101E7000030A87ED021AC7ED011A87ED002A3A69B5
:101E80007B691A607B6904337A681A607B6908335E
:101E9000FA681A607B690C333A681A607B69103300
:101EA000BA681A6000BF1C37BD465DF8047B7047F6
:101EB00080B485B000AF786087ED000A0023FB6036
:101EC00026E00023BB6010E0FA6813469B00134431
:101ED0009B001A467B681A44BB689B0013444FF072
:101EE00000021A60BB680133BB60BB68042BEBDDEA
:101EF000FA6813469B0013449B001A467B681A44F9
:101F0000FB689B0013443A681A60FB680133FB606E
:101F1000FB68042BD5DD00BF00BF1437BD465DF85C
:101F2000047B704780B487B000AFF860B9607A6016
:101F300000237B6135E07B699B007A6813444FF096
:101F400000021A6000233B6125E07A6913469B007A
:101F500013449B001A46FB681A443B699B001344D8
:101F600093ED007A3B699B00BA681344D3ED007A85
:101F700027EE277A7B699B007A681344D3ED007AB9
:101F80007B699B007A68134477EE277AC3ED007A69
:101F90003B6901333B613B69042BD6DD7B6901332F
:101FA0007B617B69042BC6DD00BF00BF1C37BD46CB
:101FB0005DF8047B704780B487B000AFF860B9600B
:101FC0007A6000237B6126E000233B611DE07B6992
:101FD0009B00FA68134493ED007A3B699B00BA6852
:101FE0001344D3ED007A7A6913469B0013449B0097
:101FF0001A467B681A4467EE277A3B699B001344B4
:10200000C3ED007A3B6901333B613B69042BDEDDA4
:102010007B6901337B617B69042BD5DD00BF00BF89
:102020001C37BD465DF8047B704780B487B000AFB5
:10203000F860B9607A6000237B6134E000233B6183
:102040002BE07A6913469B0013449B001A46FB68F9
:102050001A443B699B00134493ED007A7A69134656
:102060009B0013449B001A46BB681A443B699B00C3
:102070001344D3ED007A7A6913469B0013449B0006
:102080001A467B681A4477EE677A3B699B001344D3
:10209000C3ED007A3B6901333B613B69042BD0DD22
:1020A0007B6901337B617B69042BC7DD00BF00BF07
:1020B0001C37BD465DF8047B704780B487B000AF25
:1020C000F86087ED020A796000237B6129E0002334
:1020D0003B6120E07A6913469B0013449B001A463B
:1020E000FB681A443B699B00134493ED007AD7EDDB
:1020F000027A7A6913469B0013449B001A467B6858
:102100001A4467EE277A3B699B001344C3ED007ABB
:102110003B6901333B613B69042BDBDD7B690133A8
:102120007B617B69042BD2DD00BF00BF1C37BD463D
:102130005DF8047B704780B489B000AFF860B96087
:102140007A600023FB615AE00023BB6151E0FA6929
:1021500013469B0013449B001A467B681A44BB69D4
:102160009B0013444FF000021A6000237B613AE0A9
:10217000FA6913469B0013449B001A46FB681A44F5
:102180007B699B00134493ED007A7A6913469B00A8
:1021900013449B001A46BB681A44BB699B00134456
:1021A000D3ED007A27EE277AFA6913469B00134491
:1021B0009B001A467B681A44BB699B001344D3ED0D
:1021C000007AFA6913469B0013449B001A467B6809
:1021D0001A4477EE277ABB699B001344C3ED007A5B
:1021E0007B6901337B617B69042BC1DDBB690133F2
:1021F000BB61BB69042BAADDFB690133FB61FB6991
:10220000042BA1DD00BF00BF2437BD465DF8047B71
:10221000704780B485B000AF786039600023FB6000
:1022200023E00023BB601AE0FA6813469B001344C6
:102230009B001A467B689818BA6813469B001344A3
:102240009B001A463B689918BB689B0003441A68B8
:10225000FB689B000B441A60BB680133BB60BB6822
:10226000042BE1DDFB680133FB60FB68042BD8DD48
:1022700000BF00BF1437BD465DF8047B704780B4D3
:1022800085B000AF786039600023FB6023E0002355
:10229000BB601AE0FA6813469B0013449B001A4681
:1022A0007B689818FA6813469B0013449B001A46F3
:1022B0003B689918BB689B0003441A68BB689B0085
:1022C0000B441A60BB680133BB60BB68042BE1DDC3
:1022D000FB680133FB60FB68042BD8DD00BF00BF47
:1022E0001437BD465DF8047B704780B487B000AFFB
:1022F000786000237B6148E07B6901333B613EE00D
:102300007A6913469B0013449B001A467B681A4463
:102310003B699B00134493ED007A3A6913469B0096
:1023200013449B001A467B681A447B699B00134444
:10233000D3ED007A77EE277AB6EE007A67EE877AE9
:10234000C7ED037A7A6913469B0013449B001A4633
:102350007B681A443B699B001344FA681A603A6927
:1023600013469B0013449B001A467B681A447B6902
:102370009B001344FA681A603B6901333B613B6977
:10238000042BBDDD7B6901337B617B69042BB3DDED
:1023900000BF00BF1C37BD465DF8047B704780B4AA
:1023A00087B000AFF86087ED020AC7ED010A00238D
:1023B0007B6144E07A6913469B0013449B001A46F4
:1023C000FB681A447B699B001344D3ED007A97EDB8
:1023D000027AB4EEE77AF1EE10FA0CDD7A69134670
:1023E0009B0013449B001A46FB681A447B699B00C0
:1023F0001344BA681A607A6913469B0013449B0021
:102400001A46FB681A447B699B001344D3ED007A9B
:1024100097ED017AB4EEE77AF1EE10FA0CD57A690D
:1024200013469B0013449B001A46FB681A447B69C1
:102430009B0013447A681A607B6901337B617B6976
:10244000042BB7DD00BF00BF1C37BD465DF8047B21
:10245000704780B487B000AFF860B96087ED010ABB
:10246000BB68013B7B610FE07B6903F18043013B6B
:102470009B00FA681A447B699B00F9680B44126858
:102480001A607B69013B7B617B69002BECDCFB689C
:102490007A681A6000BF1C37BD465DF8047B704740
:1024A00080B485B000AF786039603B68002B02D102
:1024B000DFED166A21E04FF00003FB600023BB60F4
:1024C0000EE0BB689B007A681344D3ED007A97ED69
:1024D000037A77EE277AC7ED037ABB680133BB60D6
:1024E000BA683B689A42ECD33B6807EE903AF8EE44
:1024F000677A97ED037AC7EE276AF0EE667AB0EE58
:10250000670A1437BD465DF8047B70470000000081
:1025100080B489B000AF184BFB61184B9B68BB615E
:10252000BB691B0903F00F037B61BB699B0A03F0C6
:1025300007033B61124A7B6932F81330FB60114A92
:102540003B6913441B78BB60FA69FB68B2FBF3F389
:102550007B607A68BB68B2FBF3F33B60BB68012B1E
:1025600002D03B685B0000E03B6818462437BD465C
:102570005DF8047B704700BF007A030A0038024010
:10258000B8450008D845000880B588B000AF78602D
:1025900039607B68002B02D14FF47A737B603B6813
:1025A000B3F57A7F02D94FF47A733B604D4B1B6BC6
:1025B0004C4A43F0020313634A4B1B6C494A43F0F5
:1025C00002031364484B1B68474A23F0030313605C
:1025D000454B1B68444A43F002031360424B5B685F
:1025E000414A23F0010353603F4BDB683E4A23F02E
:1025F0000303D3603C4B9B683B4A43F00303936067
:10260000394B1B6A384A23F00F031362364B1B6A9F
:10261000354A43F002031362344B00221A60FFF77D
:1026200077FF7861324B3B617A693B69B2FBF3F328
:10263000FB61FB69002B01D10123FB61FB69013BBD
:10264000FB61FB6901337A69B2FBF3F3FB60FA6863
:102650007B68B2FBF3F3BB61BB69002B01D10123A3
:10266000BB61BB69013BBB61FB699AB21F4B9A62BC
:10267000BB699AB21D4BDA62BB6901333A6802FB4F
:1026800003F31C4AA2FB03239B09BB60BB689AB2FD
:10269000164BDA63154BDB69144A23F07303D361DD
:1026A000124BDB69114A43F06803D3610F4B1B6A7D
:1026B0000E4A43F4807313620C4B1B680B4A43F0C1
:1026C00080031360094B5B69084A43F001035361BF
:1026D000064B1B68054A43F00103136000BF203717
:1026E000BD4680BD003802400004024000040040A6
:1026F00040420F00D34D621080B485B000AF7860C7
:102700007B68B3F57A7F02D94FF47A737B600A4B0A
:10271000DB6AFB60FB6801337A6802FB03F3074A5C
:10272000A2FB03239B099AB2034BDA6300BF143761
:10273000BD465DF8047B704700040040D34D621035
:1027400080B483B000AF78607B68002B06D0094B63
:102750001B6A084A43F40073136205E0054B1B6AC9
:10276000044A23F40073136200BF0C37BD465DF8C2
:10277000047B70470004004080B485B000AF0F4B6D
:10278000BB600F4B9B685B0B03F007037B607B68B0
:10279000032B02D80123FB6005E07B68033B012289
:1027A00002FA03F3FB60BA68FB68B2FBF3F3184666
:1027B0001437BD465DF8047B704700BF007A030AFA
:1027C0000038024080B582B000AFFFF7D5FF7860D7
:1027D000084B9B685B0B03F007033B603B68032BD4
:1027E00001D87B6801E07B685B0018460837BD466E
:1027F00080BD00BF0038024080B586B000AF786071
:10280000564B1B6B554A43F001031363534B5B6CF0
:10281000524A43F001035364514B1B68504A23F45E
:10282000403313604E4B1B684D4A43F40033136032
:102830004B4B5B6A4A4A23F00F035362484B5B6A77
:10284000474A43F001035362454B9B68444A43F4B3
:1028500040339360424B5B68414A23F4807353607A
:102860003F4BDB683E4A23F44033D3603D4B0022AC
:102870001A603C4B00225A603A4B00229A60394B56
:102880000022DA60FFF79EFFF86000237B61FA68A0
:102890007B68B2FBF3F3013B3B6110E07B690133E2
:1028A0007B617B6901337A6802FB03F3FA68B2FB50
:1028B000F3F3013B3B617B69B3F5803F04D23B6995
:1028C000B3F5803FEAD200E000BF7B699AB2254BA6
:1028D0009A623B699AB2234BDA623B699AB2224B05
:1028E0001A80204B00225A631E4B9B691D4A23F01D
:1028F000700393611B4B9B691A4A43F06003936119
:10290000184B9B69174A43F008039361154B1B6AE8
:10291000144A43F004031362124B1B6A114A43F03A
:10292000010313620F4B1B680E4A43F080031360D0
:102930000C4B5B6C0B4A43F400435364094B5B69DB
:10294000084A43F001035361064B1B68054A43F0F4
:102950000103136000BF1837BD4680BD0038024038
:1029600000000240000001405C06002080B485B0F9
:1029700000AF0346FB80FB88B3F57A7F02D94FF4A2
:102980007A73FB80FB880E4A1288013202FB03F344
:102990000C4AA2FB03239B09FB60094B1B881A46C8
:1029A000FB68934202D9064B1B88FB60FB689AB216
:1029B000054B5A6300BF1437BD465DF8047B704772
:1029C0005C060020D34D62100000014080B400AFCF
:1029D0004E4B1B6B4D4A43F0010313634B4B1B6C77
:1029E0004A4A43F001031364494B1B68484A23F0E9
:1029F0000F031360464B1B68454A43F00A031360FC
:102A0000434B1B6A424A23F0FF031362404B1B6A8D
:102A10003F4A43F0110313623D4BDB683C4A23F00D
:102A20000F03D3603A4BDB68394A43F00503D360A8
:102A30004FF0804300221A604FF0804300225A601A
:102A40004FF0804300229A604FF080430022DA600A
:102A50004FF080434FF0FF32DA624FF080430022A4
:102A60005A624FF080439B694FF0804223F44073D9
:102A700023F0030393614FF080439B694FF0804242
:102A800043F4807343F0010393614FF080439B69EB
:102A90004FF0804223F4704323F0F00393614FF032
:102AA00080439B694FF0804243F4804343F04003EE
:102AB00093614FF080431B6A4FF0804223F0AA03DA
:102AC00013624FF080439B684FF0804223F007036E
:102AD00093604FF080439B684FF0804243F00303C4
:102AE00093604FF080431B6A4FF0804243F0110324
:102AF00013624FF080431B684FF0804243F00103A4
:102B0000136000BFBD465DF8047B7047003802408B
:102B10000000024080B400AF4FF080435B6A18466B
:102B2000BD465DF8047B704780B400AF4FF0804332
:102B300000225A6200BFBD465DF8047B704700006A
:102B400080B485B000AF87ED010A4FF080435B6A27
:102B5000FB600D4B1B68FA68D31ABB600A4AFB681E
:102B60001360BB6807EE903AF8EEE76A97ED017ADA
:102B7000C6EE877AFDEEE77A17EE903A18461437DC
:102B8000BD465DF8047B70476006002080B400AF4E
:102B90001C4B1B6B1B4A43F0010313631A4B1B684E
:102BA000194A23F44C431360174B1B68164A43F42D
:102BB00008431360144B1B6A134A23F0704323F439
:102BC00070031362104B1B6A0F4A43F0A04343F497
:102BD000A00313620C4B9B680B4A43F44C43936075
:102BE000094B5B68084A23F0A0035360064BDB687F
:102BF000054A23F44C43D36000BFBD465DF8047B17
:102C0000704700BF003802400000024080B400AFAF
:102C1000204B5B6C1F4A43F4805353641E4B1B686C
:102C20001D4A23F0380313601B4B1B681A4A43F0FC
:102C300010031360184B1B68174A23F0030313603B
:102C4000154B1B68144A23F480631360124B1B68F6
:102C5000114A23F0800313600F4B1B680E4A43F0A8
:102C6000040313600C4B1B680B4A23F400631360CE
:102C7000094B1B68084A43F440731360064B1B68FA
:102C8000054A43F04003136000BFBD465DF8047B76
:102C9000704700BF003802400030014080B483B06C
:102CA00000AF0346FB7100BF0E4B9B6803F00203AD
:102CB000002BF9D00C4AFB79137000BF094B9B68BD
:102CC00003F00203002BF9D000BF064B9B6803F012
:102CD0008003002BF9D100BF00BF0C37BD465DF863
:102CE000047B7047003001400C30014080B400AFDD
:102CF00001231846BD465DF8047B704780B582B05D
:102D000000AF7860396000F0C1FC034616221A60FB
:102D10004FF0FF3318460837BD4680BD80B582B0FE
:102D200000AF78604FF0FF317868FFF7E7FF00BF32
:102D3000FDE780B586B000AFF860B9607A60002327
:102D40007B610AE0AFF300800146BB685A1CBA60A1
:102D5000CAB21A707B6901337B617A697B689A42D7
:102D6000F0DB7B6818461837BD4680BD80B586B05D
:102D700000AFF860B9607A6000237B6109E0BB684E
:102D80005A1CBA601B781846AFF300807B69013388
:102D90007B617A697B689A42F1DB7B681846183759
:102DA000BD4680BD80B483B000AF78604FF0FF3384
:102DB00018460C37BD465DF8047B704780B483B07D
:102DC00000AF786039603B684FF400525A600023CE
:102DD00018460C37BD465DF8047B704780B483B05D
:102DE00000AF7860012318460C37BD465DF8047BC0
:102DF000704780B485B000AFF860B9607A60002396
:102E000018461437BD465DF8047B704780B586B020
:102E100000AF7860144A154BD31A7B617B693B6124
:102E2000134B1B68002B02D1114B124A1A60104B36
:102E30001A687B6813443A699A4207D200F026FC6C
:102E400003460C221A604FF0FF3309E0084B1B6861
:102E5000FB60074B1A687B681344054A1360FB68E4
:102E600018461837BD4680BD00000220000400004F
:102E700064060020B807002080B400AF244B1B6814
:102E8000234A43F48033136000BF214B1B6803F4D3
:102E90000033002BF9D01F4B40F205721A601C4B17
:102EA0001D4A5A601A4B1B68194A43F0807313601D
:102EB00000BF174B1B6803F00073002BF9D0144BB5
:102EC000134A9B689360124B9B68114A43F4A053CA
:102ED00093600F4B9B680E4A43F4004393600C4B86
:102EE0009B680B4A43F00203936000BF084B9B684A
:102EF00003F00C03082BF9D1054B1B68044A23F09F
:102F00000103136000BFBD465DF8047B704700BF3E
:102F100000380240003C02400854400780B485B0AD
:102F200000AF78600023FB7309E00023FB7303E02C
:102F300000BFFB7B0133FB73FB7B632BF8D97B6802
:102F40005A1E7A60002BF0D100BF00BF1437BD4677
:102F50005DF8047B7047000080B584B000AF7860F6
:102F60000023FB730023BB607B681846FDF7ECFB76
:102F700015A3D3E90023FDF77BF902460B46104663
:102F8000194613A3D3E90023FDF7A2FA02460B4624
:102F900010461946FDF752FC0346BB6009E00023CA
:102FA000FB7303E000BFFB7B0133FB73FB7B632BF5
:102FB000F8D9BB685A1EBA60002BF0D100BF00BF21
:102FC0001037BD4680BD00BFC2172653052F714084
:102FD000984C158C4AEAE03F80B483B000AF0346BA
:102FE000FB7197F90730002B0BDBFB7903F01F0215
:102FF000074997F907305B09012000FA02F241F80E
:10300000232000BF0C37BD465DF8047B704700BF2E
:1030100000E100E080B483B000AF03463960FB718B
:1030200097F90730002B0ADB3B68DAB20C4997F9B5
:1030300007301201D2B20B4483F800230AE03B6848
:10304000DAB20849FB7903F00F03043B1201D2B254
:103050000B441A7600BF0C37BD465DF8047B704701
:1030600000E100E000ED00E080B500AF1A4B1B6C02
:10307000194A43F004031364174B1B6C174B0022CF
:103080001A60164B00225A60144B00229A60134BB0
:103090000022DA60114B53229A62104B42F20F72F7
:1030A000DA620E4B01225A610C4B00221A610B4B63
:1030B000DB680A4A43F00103D36005211E20FFF7B5
:1030C000A9FF1E20FFF788FF044B1B68034A43F04B
:1030D0000103136000BF80BD0038024000080040BB
:1030E00080B485B000AF786039603B685A087B686F
:1030F0001A443B68B2FBF3F3FB60FB6818461437D5
:10310000BD465DF8047B704790B583B000AF2F4B90
:103110001B6B2E4A43F0020313632C4B1B6C2B4A90
:1031200043F4802313642A4B1B68294A23F4700359
:103130001360274B1B68264A43F420031360244B7B
:103140005B68234A23F440635360214B9B68204A09
:1031500043F4700393601E4BDB681D4A23F4700335
:10316000D3601B4BDB681A4A43F48003D360184BCF
:103170005B6A174A23F47F435362154B5B6A144A18
:1031800043F4EE435362134B0022DA60114B0022EA
:103190001A61104B00225A610F4B7B600D4C4FF4AB
:1031A000E1317868FFF79CFF0346A360094BDB68B9
:1031B000084A43F00C03D360064BDB68054A43F42E
:1031C0000053D36000BF0C37BD4690BD00380240AD
:1031D000000402400048004080DE800280B483B0DA
:1031E00000AF0346FB71084AFB79536000BF064BF2
:1031F0001B6803F08003002BF9D000BF00BF0C3721
:10320000BD465DF8047B70470048004080B582B041
:1032100000AF786006E07B685A1C7A601B7818461D
:10322000FFF7DCFF7B681B78002BF4D100BF00BFE9
:103230000837BD4680BD000080B483B000AF786021
:10324000094B1B6803F02003002B06D0064B5B687C
:10325000DAB27B681A70012300E0002318460C37AD
:10326000BD465DF8047B70470048004080B400AF65
:1032700000BF074B1B6803F02003002BF9D0044B61
:103280005B68DBB21846BD465DF8047B704700BF43
:103290000048004080B400AF00BF064B1B6803F03D
:1032A0004003002BF9D000BF00BFBD465DF8047B92
:1032B000704700BF004800400D488546AFF30080CE
:1032C0000C480D490D4A002302E0D458C450043381
:1032D000C4188C42F9D30A4A0A4C002301E0136057
:1032E0000432A242FBD300F0D7F9FEF745F9FEE71E
:1032F000000002200000002088040020244700086D
:1033000088040020B4070020FEE7000038B5104B09
:103310001D682B6B0446B3B9182000F04DFA024625
:10332000286320B90B4B0C48462100F0DDF90B490E
:103330000B4BC0E900130B4B83600B2383810021EF
:103340000120C2E904012B6B00221C615A6138BDC7
:1033500038040020344600084B4600080E33CDAB3D
:1033600034126DE6ECDE0500164B10B51C68236BBD
:10337000B3B9182000F020FA0246206320B9124B9E
:103380001248522100F0B0F91149124BC0E9001364
:10339000114B83600B23838100210120C2E90401CA
:1033A000216B0E480B694C690D4A584302FB04001F
:1033B000A3FB0232013340EB0200C1E9043020F0EC
:1033C000004010BD38040020344600084B46000879
:1033D0000E33CDAB34126DE6ECDE05002DF4515802
:1033E0002D7F954C002310B50446C0E90033C0E999
:1033F0000433836081814366C28183611946082258
:103400005C3000F0F4F80D4B63620D4BA3620D4B82
:10341000E3620D4B23630D4B24629C4206D003F103
:103420006802944202D0D0339C4205D104F1580086
:10343000BDE8104000F054B910BD00BF6935000868
:103440008B350008C3350008E73500086806002002
:10345000024A0349034800F069B800BF2C04002069
:103460002D3A00083C04002041680C4B994210B5ED
:10347000044601D000F0DAFAA168094B994202D063
:10348000204600F0D3FAE168064B994204D020466A
:10349000BDE8104000F0CABA10BD00BF68060020A9
:1034A000D00600203807002010B50B4B0B4C0C4AFF
:1034B0001A60204600220421FFF794FF04F16800FF
:1034C00001220921FFF78EFF04F1D0000222BDE89E
:1034D00010401221FFF786BFA007002068060020D9
:1034E00051340008014800F0FCB800BFA9070020D3
:1034F000014800F0F7B800BFA907002010B5044646
:10350000FFF7F0FF236A1BB1BDE81040FFF7F0BFE3
:10351000044B2362044B1B68002BF5D1FFF7C4FF5B
:10352000F2E700BF69340008A00700202DE9F84346
:103530000746884614460026D4E90195B9F10109E9
:1035400005D52468002CF7D13046BDE8F883AB8957
:10355000012B07D9B5F90E30013303D0294638467F
:10356000C04706436835E9E710B50C46B1F90E10BF
:1035700000F068F80028ABBF636DA3891B1823F423
:103580008053ACBF6365A38110BD2DE9F0411F4698
:103590008B89DB0505460C46164605D5B1F90E109C
:1035A0000223002200F03CF8A389B4F90E1023F4A2
:1035B0008053A38132463B462846BDE8F04100F0E7
:1035C00053B810B50C46B1F90E1000F029F8431CA1
:1035D000A38915BF606523F4805343F48053A3810E
:1035E00018BFA38110BDB1F90E1000F009B8024454
:1035F0000346934200D1704703F8011BF9E700002E
:1036000038B5064D0023044608462B60FFF7CAFB79
:10361000431C02D12B6803B1236038BDA4070020EE
:1036200038B5074D04460846114600222A601A465E
:10363000FFF7DFFB431C02D12B6803B1236038BDC9
:10364000A407002038B5074D04460846114600225D
:103650002A601A46FFF76DFB431C02D12B6803B1A9
:10366000236038BDA407002038B5074D044608463E
:10367000114600222A601A46FFF778FB431C02D14C
:103680002B6803B1236038BDA4070020014B1868E4
:10369000704700BF3804002070B50D4D0D4C641B01
:1036A000A4100026A64209D10B4D0C4C00F038FEA8
:1036B000641BA4100026A64205D170BD55F8043B3A
:1036C00098470136EEE755F8043B98470136F2E794
:1036D0001C4700081C4700081C470008204700083A
:1036E00070477047704700001FB514461A46094BD3
:1036F0001B680546D8684CB1074B0091CDE90134F1
:1037000006492B4600F0BAF900F0DAF9044B1C46E2
:10371000F3E700BF38040020A3460008B0460008C5
:10372000DE46000838B50546002941D051F8043C72
:103730000C1F002BB8BFE41800F0E8F81D4A13680E
:1037400033B9636014602846BDE8384000F0E4B83F
:10375000A34208D9206821188B4201BF19685B6811
:1037600009182160EDE71A465B680BB1A342FAD94C
:1037700011685018A0420BD12068014450188342B0
:103780001160E0D118685B68536008441060DAE7A4
:1037900002D90C232B60D6E7206821188B4204BF86
:1037A00019685B68636004BF091821605460CAE748
:1037B00038BD00BFB0070020024B0146186800F07A
:1037C00025B800BF3804002070B50F4E0C46316894
:1037D000054611B900F064F930602146284600F032
:1037E0005FF9431C03D14FF0FF34204670BDC41C69
:1037F00024F00304A042F8D0211A284600F050F922
:103800000130F2D1EFE700BFAC0700202DE9F8430B
:10381000CD1C25F0030508350C2D38BF0C25002DD7
:10382000064601DBA94204D90C2333600020BDE821
:10383000F883DFF8D48000F069F8D8F800301C462F
:1038400044BB29463046FFF7BFFF431C044658D10E
:10385000D8F800402746002F43D1002C4BD02368D6
:103860003946304604EB030900F01AF9814542D18C
:1038700021686D1A29463046FFF7A6FF01303AD07D
:1038800023682B442360D8F800305A6862BBC8F81C
:1038900000700FE02268521B20D40B2A17D961193F
:1038A000A342256018BF5960636808BFC8F80010BC
:1038B00062514B60304600F02FF804F10B00231DDD
:1038C00020F00700C21A1CBF1B1AA350AFE76268A2
:1038D000A3420CBFC8F800205A60EBE72346646897
:1038E000AEE73C467F68B6E71A465B68A342FBD169
:1038F00000235360DEE70C233360304600F00CF801
:1039000094E70560D6E700BFB00700200148FFF745
:10391000E8BE00BFA80700200148FFF7E3BE00BFD4
:10392000A8070020B1F90C202DE9F0411607054643
:103930000C4654D44B68002B02DC0B6C002B48DD8A
:10394000E66A002E45D0002312F480522F68216AC7
:103950002B6030D0626DA389590705D56368D21AF0
:10396000636B0BB1236CD21A0023E66A216A2846E6
:10397000B047431CA38906D129681D292BD82A4AA0
:10398000CA40D60727D500226260D9042269226086
:1039900004D5421C01D12B6803B96065616B2F60AF
:1039A000B9B104F14403994202D02846FFF7BAFEA8
:1039B000002363630DE001232846B0470246501CF4
:1039C000C9D12B68002BC6D01D2B01D0162B1ED1C0
:1039D0002F60002022E043F040031BB21BE00F6980
:1039E000002FF6D093070E6808BF4B690F6018BF11
:1039F0000023A6EB07088B60B8F1000FE9DD216A10
:103A0000A66A43463A462846B047002808DCB4F97F
:103A10000C3043F04003A3814FF0FF30BDE8F0814C
:103A20000744A8EB0008E7E70100402038B50B6920
:103A300005460C4613B90025284638BD18B1036A5F
:103A40000BB9FFF75BFDB4F90C30002BF3D0626EBD
:103A5000D00704D4990502D4A06DFFF742FE284692
:103A60002146FFF75FFF636EDA070546E4D4A389BA
:103A70009B05E1D4A06DFFF735FEDDE70EB403B57D
:103A8000014603AB054853F8042B0068019300F08E
:103A900047F802B05DF804EB03B07047380400202B
:103AA00038B5064D0023044608462B60FFF7AEF9F3
:103AB000431C02D12B6803B1236038BDA40700204A
:103AC00008B5062000F08CFB0120FFF727F993686A
:103AD000013B002B10B4936008DA9469A34201DB28
:103AE0000A2903D15DF8044B00F0BEBA1368581CD4
:103AF0001060197008465DF8044B7047F8B506462B
:103B00000F461446D518AC4201D1002007E014F846
:103B1000011B3A463046FFF7DAFF431CF3D1F8BDEC
:103B20002DE9F04F0D469DB014469846064618B153
:103B3000036A0BB9FFF7E2FC6B6ED90705D4AB89BA
:103B40009A0502D4A86DFFF7CCFDAB891B0701D500
:103B50002B699BB92946304600F0C4FA70B16B6EF0
:103B6000DC0704D54FF0FF301DB0BDE8F08FAB8906
:103B70009805F7D4A86DFFF7B5FDF3E70023099387
:103B800020238DF82930CDF80C803023DFF8AC816C
:103B90008DF82A304FF0010923469A4613F8012B7D
:103BA0000AB1252AF9D1BAEB040B0BD05B462246A9
:103BB00029463046FFF7A2FF013000F0A780099A9E
:103BC0005A4409929AF80030002B00F09F8000239D
:103BD0004FF0FF32CDE905230AF1010A0493079360
:103BE0008DF853301A935446052214F8011B53489C
:103BF000FCF7EEFA049AD8B9D10644BF20238DF819
:103C00005330130744BF2B238DF853309AF80030FC
:103C10002A2B15D0079A544600204FF00A0C214653
:103C200011F8013B303B092B4BD9B0B1079214E09E
:103C3000A0EB080309FA03F313430493A246D2E767
:103C4000039B191D1B680391002BBBBF5B4242F015
:103C5000020207930793B8BF049223782E2B0AD150
:103C600063782A2B32D1039B1A1D1B68039243EA07
:103C7000E37302340593DFF8D4A021780322504681
:103C8000FCF7A6FA38B1049BA0EB0A004022824060
:103C900013430134049314F8011B29488DF82810AC
:103CA0000622FCF795FA00283FD0264B1BBB039B4E
:103CB000073323F0070308330393099B3B4409931D
:103CC0006AE70CFB02320C460120A8E7002301340E
:103CD000059319464FF00A0C204610F8012B303A94
:103CE000092A03D9002BC6D00591C4E70CFB01219A
:103CF00004460123F0E703AB00932A46124B04A9C4
:103D00003046AFF300800746781CD6D16B6ED907DA
:103D100005D4AB899A0502D4A86DFFF7E3FCAB8903
:103D20005B063FF51FAF09981EE703AB00932A46D9
:103D3000054B04A9304600F079F8E4E7DF460008B7
:103D4000E946000800000000FD3A0008E5460008CA
:103D50002DE9F047164698468A680B69DDF82090F1
:103D60009342B8BF1346336091F8432007460C4690
:103D70000AB1013333602368990642BF33680233C6
:103D80003360256815F0060506D104F1190AE368C9
:103D900032689B1AAB4226DC94F843302268003B21
:103DA00018BF012392062BD404F143024146384642
:103DB000C84701301ED02368226903F00603042B94
:103DC00002BFE5683368ED1AA3680CBF25EAE57504
:103DD00000259342C4BF9B1AED1800261A34B54241
:103DE0001AD1002008E00123524641463846C84710
:103DF000013003D14FF0FF30BDE8F0870135C6E751
:103E0000E1185A1C302081F84300224494F84510F0
:103E100082F843100233C7E7012322464146384661
:103E2000C8470130E6D00136D9E700002DE9FF4749
:103E30000F7E0C9E782F914680460C469A4601F1E3
:103E4000430207D8622F0AD8002F00F0D180582FE4
:103E500000F0B88004F1420684F842703AE0A7F11D
:103E60006303152BF6D801A151F823F0C53E0008D5
:103E7000D93E0008553E0008553E0008553E000852
:103E8000553E0008D93E0008553E0008553E000842
:103E9000553E0008553E0008D73F0008033F000884
:103EA000913F0008553E0008553E0008F93F0008C4
:103EB000553E0008033F0008553E0008553E0008E7
:103EC000993F000833681A1D1B68326004F14206EE
:103ED00084F8423001239CE033682068191D31606A
:103EE000060601D51D6803E04506FBD5B3F9005071
:103EF000002D03DA2D236D4284F8433058480A23FD
:103F000011E021683368080653F8045B02D44906BF
:103F100048BFADB26F2F5248336014BF0A23082345
:103F2000002184F843106668A660002E05DB216836
:103F30002E4321F0040121604BD01646B5FBF3F16E
:103F400003FB1157C75D06F8017D2F46BB420D46A6
:103F5000F4D9082B0BD12368DF0708D523696168E2
:103F60009942DEBF302306F8013C06F1FF36921B72
:103F70002261CDF800A04B4603AA21464046FFF738
:103F8000E7FE01304AD14FF0FF3004B0BDE8F087C2
:103F9000236843F0200323603248782784F8457073
:103FA000236831681F0651F8045B02D45F0648BFDE
:103FB000ADB23160D90744BF43F0200323601DB187
:103FC0001023ADE72648E9E7236823F020032360A8
:103FD000F6E71646BDE7336825686169181D30604D
:103FE0002E061B6801D5196002E06806FBD5198012
:103FF000002323611646BCE733681A1D32601E6831
:10400000626800213046FCF7E3F808B1801B60606D
:1040100063682361002384F84330AAE723693246AA
:1040200049464046D0470130ADD023689B0713D4A2
:10403000E068039B9842B8BF1846A6E701233246C2
:1040400049464046D04701309DD00135E368039989
:104050005B1AAB42F2DCEBE7002504F11906F5E749
:10406000F046000801470008F8B50E46144605461C
:1040700018B1036A0BB9FFF741FAA369A360A389DA
:104080001A0701D5236943B92146284600F02AF8CA
:1040900018B14FF0FF373846F8BD23682269981AE7
:1040A0006369F6B28342374605DC21462846FFF7AE
:1040B000BDFC0028EDD1A368013BA36023685A1C16
:1040C00022601E706269431C9A4204D0A389DB07F8
:1040D000E1D50A2EDFD121462846FFF7A7FC0028AC
:1040E000D9D0D6E738B5294B054618680C4618B123
:1040F000036A0BB9FFF702FAB4F90C30190722D49E
:10410000DA0607D409222A6043F04003A3814FF066
:10411000FF3033E0580712D5616B41B104F144031D
:10412000994202D02846FFF7FDFA00236363A38972
:1041300023F02403A3810023636023692360A38900
:1041400043F00803A38123694BB9A38903F42073C7
:10415000B3F5007F03D02146284600F083F8B4F978
:104160000C3013F001020AD00022A26062695242B0
:10417000A261226942B913F08000C5D138BD990708
:1041800058BF6269A260F4E70020F7E73804002016
:104190001F2938B505460C4604D9162303604FF095
:1041A000FF3038BDC26B12B152F821304BB92846EE
:1041B00000F030F8224601462846BDE8384000F0BD
:1041C00017B8012B0AD0591C03D116230360012014
:1041D000E7E7002142F82410204698470020E0E756
:1041E000024B01461868FFF7D3BF00BF3804002018
:1041F00038B5074D00230446084611462B60FEF7EC
:104200007DFD431C02D12B6803B1236038BD00BF84
:10421000A4070020FEF76ABD70B50C46B1F90E1078
:10422000002996B015461E460DDAA38913F0800FBB
:104230004FF0000114BF40234FF480630020316031
:104240002B6016B070BD6A4600F048F80028ECDB21
:10425000019901F47041A1F50053594259414FF4BD
:104260008063EBE78B89F7B59D0706460C4607D5BB
:1042700004F14703236023610123636103B0F0BDB0
:1042800001AB6A46FFF7C8FF009F05463946304636
:10429000FFF7BCFA48B9B4F90C309A05EED423F014
:1042A000030343F00203A381E2E7A389206043F004
:1042B0008003A381019BC4E904075BB1B4F90E102C
:1042C000304600F01DF828B1A38923F0030343F022
:1042D0000103A381A3891D43A581CFE738B5074D0D
:1042E00000230446084611462B60FEF767FD431C79
:1042F00002D12B6803B1236038BD00BFA4070020A2
:1043000038B5064D0023044608462B60FEF766FDCF
:10431000431C02D12B6803B1236038BDA4070020E1
:10432000F8B500BFF8BC08BC9E467047F8B500BFA2
:08433000F8BC08BC9E46704772
:10433800303030300000000054494D450000000086
:1043480052504D723A00000052504D653A0000003C
:1043580054696D653A0000004572726F722061629F
:10436800733A000052504D000E11111F1111111E09
:1043780011111E11111E0E11101010110E1E111107
:104388001111111E1F10101E10101F1F10101E10CB
:1043980010100E11101711110E1111111F111111FA
:1043A8000E04040404040E0702020212120C111275
:1043B80014181412111010101010101F111B1515BD
:1043C800111111111915131111110E1111111111CA
:1043D8000E1E11111E1010100E11111115120D1EA6
:1043E80011111E1412110F10100E01011E1F0404CA
:1043F800040404041111111111110E1111111111DC
:104408000A041111111515150A11110A040A1111BE
:1044180011110A040404041F01020408101F0000FB
:10442800000E010F110F0010101E11111E00000EBA
:104438001110110E0001010F11110F00000E111FB4
:10444800100E0006081E08080800000F11110F01C1
:104458000E10101E1111110004000C04040E0002AD
:1044680000060202120C101012141814000C040496
:1044780004040E00001A1515151500001E1111115F
:104488001100000E1111110E00001E11111E101046
:10449800000F11110F010100161910101000000F64
:1044A800100E011E0008081E080806000011111150
:1044B800110F00001111110A040000111115150A3D
:1044C8000000110A040A11000011110F010E00006A
:1044D8001F0204081F00000000000000000C0C0070
:1044E8000E11111111110E040C040404040E0E1106
:1044F800010204081F1F01010E01011F02060A1212
:104508001F02021F10101E01011E0608101E1111A5
:104518000E1F0102040808080E11110E11110E0ECB
:1045280011110F01020C0000000000000000000043
:10453800000A041F040A00000000001F0000000019
:10454800000C0C000C0C000041110008E5120008DA
:104558000113000819130008351300084D1300084B
:10456800691300082512000885130008A113000824
:10457800B5110008BD130008D9130008F513000889
:10458800111400082D1400084914000865140008C7
:1045980085140008A514000891120008C514000825
:1045A800E91400080D150008311500085515000814
:1045B80001000100010001000100010001000100EB
:1045C8000200040008001000400080000001000202
:1045D8000101010102040810F92700086D290008EB
:1045E80089250008F926000841270008CD29000878
:1045F800152B0008292B0008412B00088D2B0008DB
:104608000D2C00089D2C0008792E00081D2F00088D
:10461800592F000809310008DD3100080D32000863
:10462800393200086D320008953200085245454E6F
:1046380054206D616C6C6F6320737563636565648A
:104648006564002F6275696C642F676E752D746FD1
:104658006F6C732D666F722D73746D33325F3133E7
:104668002E332E72656C312E32303235303532337E
:104678002D303930302F7372632F6E65776C696215
:104688002F6E65776C69622F6C6962632F7374642F
:104698006C69622F72616E642E63002C2066756EE1
:1046A8006374696F6E3A2000617373657274696F21
:1046B8006E2022257322206661696C65643A206643
:1046C800696C6520222573222C206C696E65202573
:1046D80064257325730A00232D302B2000686C4C49
:1046E8000065666745464700303132333435363722
:1046F8003839414243444546003031323334353647
:0C470800373839616263646566000000A8
:08471400BCBAFF7F01000000A8
:04471C00B5010008DB
:0447200091010008FB
:104724000000000000000000F40100000000000090
:104734000000000000000000000000000000000075
:104744000000000000000000000000000000000065
:104754000000000000000000000000000000000055
:104764000000000000000000000000000000000045
:104774000000000000000000000000000000000035
:104784000000000000000000000000000000000025
:104794000000000000000000000000000000000015
:1047A4001B2F7D3F00000000000000000000C842F5
:1047B40000000000000000000000000000000000F5
:1047C40000000000000000000000000000000000E5
:1047D40000000000000000000000000000000000D5
:1047E40000000000000000000000000000000000C5
:1047F40000000000000000000000000000000000B5
:1048040000000000000000000000000000000000A4
:104814000000000000000000000000000000000094
:104824000000000000000000000000000000000084
:104834000000000000000000000000000000000074
:104844000000000000000000000000000000000064
:104854000000000000000000000000000000000054
:104864000000000000000000000000000000000044
:104874000000000000000000000000000000000034
:104884000000000000000000000000000000000024
:104894000000000000000000000000000000000014
:1048A4000000000000000000000000000000000004
:1048B40000000000000000000000000000000000F4
:1048C40000000000000000000000000000000000E4
:1048D400000000000000000000000000CDCCCC3D32
:1048E400CDCCCC3DCDCCCC3DCDCCCC3DCDCCCC3D3C
:1048F40000000000000000000000000000000000B4
:1049040000000000000000000000000000000000A3
:104914000000000000000000000000000000000093
:104B540003000000680600203C0400200000000060
:104B640068060020D006002038070020000000005E
:104B74000000000000000000000000000000000031
:104B84000000000000000000000000000000000021
:104B94000000000000000000000000000000000011
:084BA400000000000000000009
:04000005080032B904
:00000001FF
